:100000000C9483060C94CA060C94CA060C94CA0677
:100010000C94CA060C94CA060C94CA060C94CA0620
:100020000C94CA060C94CA060C942A260C94FE263C
:100030000C94C81D0C94CA060C94CA060C94CA06EB
:100040000C94CA060C94CA060C94CA060C94CA06F0
:100050000C94CA060C941F1E0C94CA060C94CA0673
:100060000C94CA060C94CA060C94CA060C94CA06D0
:100070000C94CA060C94CA060C94CA060C94CA06C0
:100080000C94CA060C94CA060C94CA060C94CA06B0
:100090000C94CA060C94CA060C94CA060C94CA06A0
:1000A0000C94CA060C94CA060C94CA0601E001E23C
:1000B000016302E002E202630029001E001F00202B
:1000C0000021002200230024002500260027002D07
:1000D000002E0000002A004C002B00000014001A23
:1000E000000800150017001C0018000C0012001377
:1000F000002F00300031004B0039000000040016D2
:1001000000070009000A000B000D000E000F00336D
:10011000003400280000004E000000E1001D001B1C
:1001200000060019000500110010003600370038E5
:10013000000000E50052004A00E000E3000000E299
:1001400000000000002C000000000000000151022F
:10015000510351500051004F0001003A003B003C58
:10016000003D003E003F004000410042004300448B
:100170000045000000010001000100000001000135
:100180000001000100010001000100010001000167
:100190000001000100010001000100000001000158
:1001A0000001000100010001000100010001000147
:1001B0000001000100000001000000010001000139
:1001C0000001000100010001000100010001000127
:1001D0000000000100010001000100010000000119
:1001E000000000000001000000000000000100010C
:1001F0000001000100010001000100A800AA00A9FF
:10020000000100B90001000100010001000100012E
:1002100000010000000100010001000000010001D8
:1002200000010001000100010001000100010001C6
:1002300000010001000100010001000000010001B7
:1002400000010001000100010001000100010001A6
:100250000001000100000001000000010001000198
:100260000001000100010001000100010001000186
:100270000000000100010001300100010000000148
:10028000000000000001000000000000000100016B
:100290000001000100010001000100010001000156
:1002A0000001000100010001000100010001000146
:1002B0000001000000010001000100000001000138
:1002C0000001000100010001000100010001000126
:1002D0000001000100010001000100000001000117
:1002E0000001000100010001000100010001000106
:1002F00000010001000000010000000100010001F8
:1003000000010001000100010001000100010001E5
:1003100000000001000100010001000100000001D7
:1003200000000000000100000000000000010001CA
:1003300000010001000100010001000100010001B5
:1003400000010001000100010001000100010001A5
:100350000001000000010001000100000001000197
:100360000001000100010001000100010001000185
:100370000001000100010001000100000001000176
:100380000001000100010001000100010001000165
:100390000001000100000001000000010001000157
:1003A0000001000100010001000100010001000145
:1003B0000000000100010001000100010000000137
:1003C000000000000001000000000000000100012A
:1003D0000001000100010001000100010001000115
:1003E0000001000100010001000100010001000105
:1003F00000010000000100010001000000010001F7
:1004000000010001000100010001000100010001E4
:1004100000010001000100010001000000010001D5
:1004200000010001000100010001000100010001C4
:1004300000010001000000010000000100010001B6
:1004400000010001000100010001000100010001A4
:100450000000000100010001000100010000000196
:100460000000000000010000000000000001000189
:100470000001000100010001000100010001000174
:100480000001000100010001000100010001000164
:100490000001000000010001000100000001000156
:1004A0000001000100010001000100010001000144
:1004B0000001000100010001000100000001000135
:1004C0000001000100010001000100010001000124
:1004D0000001000100000001000000010001000116
:1004E0000001000100010001000100010001000104
:1004F00000000001000100010001000100000001F6
:1005000000000000000100000000000000010001E8
:1005100000010001000100010001000100010001D3
:1005200000010001000100010001000100010001C3
:1005300000010000000100010001000000010001B5
:1005400000010001000100010001000100010001A3
:100550000001000100010001000100000001000194
:100560000001000100010001000100010001000183
:100570000001000100000001000000010001000175
:100580000001000100010001000100010001000163
:100590000000000100010001000100010000000155
:1005A0000000000000010000000000000001000148
:1005B0000001000100010001000100010001000133
:1005C0000001000100010001000100010001000123
:1005D0000001000000010001000100000001000115
:1005E0000001000100010001000100010001000103
:1005F00000010001000100010001000000010001F4
:1006000000010001000100010001000100010001E2
:1006100000010001000000010000000100010001D4
:1006200000010001000100010001000100010001C2
:1006300000000001000100010001000100000001B4
:1006400000000000000100000000000000010001A7
:100650000001000100010001000100010001000192
:100660000001000100010001000100010001000182
:100670000001000000010001000100000001000174
:100680000001000100010001000100010001000162
:100690000001000100010001000100000001000153
:1006A0000001000100010001000100010001000142
:1006B0000001000100000001000000010001000134
:1006C0000001000100010001000100010001000122
:1006D0000000000100010001000100010000000114
:1006E0000000000000010000000000000001000107
:1006F00000010001000100010001000100010001F2
:1007000000010001000100010001000100010001E1
:1007100000010000000100010001000000010001D3
:1007200000010001000100010001000100010001C1
:1007300000010001000100010001000000010001B2
:1007400000010001000100010001000100010001A1
:100750000001000100000001000000010001000193
:100760000001000100010001000100010001000181
:100770000000000100010001000100010000000173
:100780000000000000010000000000000001000166
:100790000001000100010001000100010001000151
:1007A0000001000100010001000100010001000141
:1007B0000001000000010001000100000001000133
:1007C0000001000100010001000100010001000121
:1007D0000001000100010001000100000001000112
:1007E0000001000100010001000100010001000101
:1007F00000010001000000010000000100010001F3
:1008000000010001000100010001000100010001E0
:1008100000000001000100010001000100000001D2
:1008200000000000000100000000000000010001C5
:1008300000010001000100010001000100010001B0
:1008400000010001000100010001000100010001A0
:100850000001000000010001000100000001000192
:100860000001000100010001000100010001000180
:100870000001000100010001000100000001000171
:100880000001000100010001000100010001000160
:100890000001000100000001000000010001000152
:1008A0000001000100010001000100010001000140
:1008B0000000000100010001000100010000000132
:1008C0000000000000010000000000000001000125
:1008D0000001000100010001000100010001000110
:1008E0000001000100010001000100010001000100
:1008F00000010000000100010001000000010001F2
:1009000000010001000100010001000100010001DF
:1009100000010001000100010001000000010001D0
:1009200000010001000100010001000100010001BF
:1009300000010001000000010000000100010001B1
:10094000000100010001000100010001000100019F
:100950000000000100010001000100010000000191
:100960000000000000010000000000000001000184
:10097000000100010001000100010001000100016F
:10098000000100010001000100010001000100015F
:100990000001000000010001000100000001000151
:1009A000000100010001000100010001000100013F
:1009B0000001000100010001000100000001000130
:1009C000000100010001000100010001000100011F
:1009D0000001000100000001000000010001000111
:1009E00000010001000100010001000100010001FF
:1009F00000000001000100010001000100000001F1
:100A000000000000000100000000000000010001E3
:100A100000010001000100010001000100010001CE
:100A200000010001000100010001000100010001BE
:100A300000010000000100010001000000010001B0
:100A4000000100010001000100010001000100019E
:100A5000000100010001000100010000000100018F
:100A6000000100010001000100010001000100017E
:100A70000001000100000001000000010001000170
:100A8000000100010001000100010001000100015E
:100A90000000000100010001000100010000000150
:100AA0000000000000010000000000000001000143
:100AB0000001000100010001000000000000000032
:100AC000002A2B28000000000000000000000000A9
:100AD0000000000029000000002C1E3420212224E8
:100AE000342627252E362D3738271E1F2021222376
:100AF0002425263333362E37381F04050607080908
:100B00000A0B0C0D0E0F10111213141516171819CD
:100B10001A1B1C1D2F3130232D350405060708092B
:100B20000A0B0C0D0E0F10111213141516171819AD
:100B30001A1B1C1D2F3130354C0000000000000036
:100B4000000000000000000000000000007E0F0018
:100B5000D4FFFFFFC7000000780403300000000846
:100B600003460061006E0000000C03570065006E34
:100B70000075006F0000000403090409025B000314
:100B80000100A0FA0904000001030101000921117C
:100B90000100012240000705810308000A09040141
:100BA00000020300000009211101000122220007B8
:100BB0000582032000010705030320000109040248
:100BC00000010300000009211101000122BC0007FF
:100BD00005840320000A1201100100000008EDFE48
:100BE00060600100010203010660FF0961A10109C3
:100BF00062150026FF009520750881020963150023
:100C000026FF00952075089102C005010902A10187
:100C100085020901A1000509190129051500250111
:100C20009505750181029501750381010501093062
:100C300009311581257F95027508810609381581CE
:100C4000257F950175088106050C0A380215812556
:100C50007F950175088106C0C005010980A1018545
:100C60000319012AB700150126B7009501751081F7
:100C700000C0050C0901A101850419012AA0021573
:100C80000126A002950175108100C005010906A189
:100C9000018505050719E029E71500250195087567
:100CA0000181020507190029EF1500250195F0754E
:100CB0000181020508190129059505750191029523
:100CC0000175039101C005010906A101050719E09D
:100CD00029E7150025019508750181029501750820
:100CE00081010507190029FF150026FF00950675EB
:100CF00008810005081901290595057501910295DE
:100D00000175039101C011241FBECFEFDAE0DEBFF1
:100D1000CDBF04B603FE27C08091A4029091A50226
:100D2000A091A602B091A7028730904BA740B04B8C
:100D3000D1F41092A4021092A5021092A602109271
:100D4000A70214BE84B7877F84BF0FB6F894A89516
:100D500080916000886180936000109260000FBEF7
:100D6000E0E0F8E3099511E0A0E0B1E0E8ECF2E59D
:100D700002C005900D92AC39B107D9F722E0ACE979
:100D8000B1E001C01D92A43AB207E1F70E94EF2240
:100D90000C9427290C940000613039F4FC01828105
:100DA000882319F08CEA90E0089590E080E008959F
:100DB0000895089581FF03C0819A899808958198C4
:100DC000FCCF81E0089581E008950C94E306089536
:100DD0000C94E7061F93CF93DF9300D000D00F92BF
:100DE000CDB7DEB749835A836B833091B4018981D3
:100DF0009A8131111DC06623B9F02223A9F00E9407
:100E0000C91A182F682F89819A810E94761A6981E0
:100E10007A81812F0F900F900F900F900F90DF919C
:100E2000CF911F910C940E0E0E94A21A182FEFCF93
:100E30000E94C91A69817A81EDCFFC01262F408179
:100E400051816281738184810C94EA06CF93DF9390
:100E5000EC0160E00E941D07BE01DF91CF910C9470
:100E6000E806FF920F931F93CF93DF93E82FF0E0F4
:100E7000E754F54FF490C82FC695C695C695D0E0B7
:100E8000FE01E75BF44F0491877010E0082E02C06A
:100E9000159507950A94E2F701701127C75CD44FA6
:100EA000FE01C491D0E002C0D595C7958A95E2F7BE
:100EB000C170DD270115110519F081EE0E9466123F
:100EC000209719F086EE0E9466128F2D0E944E1315
:100ED000CD2B19F086EE0E94F812012B41F081EE25
:100EE000DF91CF911F910F91FF900C94F812DF9139
:100EF000CF911F910F91FF900895EF92FF920F9362
:100F00001F93CF93DF93EC01162F0AE0888188238B
:100F100009F454C0813009F04EC08981813099F4C0
:100F20007E0122E0E20EF11C8A810E944E13E7014D
:100F30002196812F815050F3EFE9FFE03197F1F7CF
:100F400000C00000F7CF823041F47E0182E0E80E5D
:100F5000F11C8A810E946612EACF833041F47E013F
:100F6000E2E0EE0EF11C8A810E94F812E0CF84309C
:100F700011F02196DDCF2A81229690E080E0AE012B
:100F80004F5F5F4F2053330B2A30310548F00197F4
:100F900078F2EFE9FFE03197F1F700C00000F7CFFA
:100FA000089FB001099F700D1124C901860F971F7A
:100FB0002981EA01E4CF0E943107BACFDF91CF91B6
:100FC0001F910F91FF90EF90089560E00C947D07C2
:100FD0008F929F92AF92BF92CF92DF92EF92FF9249
:100FE0000F931F936B017C0181E090E0A0E0B0E0E3
:100FF0004C015D0104C0880C991CAA1CBB1C4A95BD
:10100000D2F7B501A4014C015D0104C0880C991C04
:10101000AA1CBB1C2A95D2F7482959296A297B2981
:1010200004C0880F991FAA1FBB1F0A95D2F78A0117
:101030009B010C211D212E213F2104171507260796
:10104000370789F48C299D29AE29BF29BC01CD0120
:101050001F910F91FF90EF90DF90CF90BF90AF90D6
:101060009F908F90089580959095A095B0958C2134
:101070009D21AE21BF21EACF0F93382F262F6091FB
:101080001F02709120028091210290912202042F70
:10109000432F0E94E8070F910C94B4190E94691E17
:1010A0000E94131C811102C00E94B01C0C94B20A51
:1010B0000C94B40A0C94DA0681E008950C945C0850
:1010C000CF93C82F0E945A088C2FCF910C945E08A2
:1010D00008950E94DD150E9468082FEF84E39CE0CC
:1010E000215080409040E1F700C000000C94431E66
:1010F0000F931F93CF93DF93EC0161E00E941D07D4
:101100008C01BE010E94440C882359F1BE01C80124
:101110000E94E506882329F1BE01C8010E94640FE0
:101120008823F9F0BE01C8010E94B60F8823C9F0D8
:10113000BE01C8010E94D910882399F08A818823B2
:1011400039F001158CE5180751F00E3D1C4579F07A
:10115000CE01DF91CF911F910F910C94E1060E9477
:10116000690880E0DF91CF911F910F9108950E944F
:10117000B01CF7CF0895FC01EE0FFF1FE75AF44FA4
:10118000859194910895CF93DF930E940E0E0E9453
:10119000D809EC01811520E5920708F042C08115BD
:1011A00030E4930708F0BDC0883E910528F5803EE5
:1011B000910508F09DC0883A910588F4853A91051B
:1011C00008F08FC08130910509F492C0009709F4AE
:1011D0008FC0049708F08CC0D0E0C0E089C08F3B7E
:1011E000910508F489C0805C9109C03CD105A0F349
:1011F0000E94BB08EC017CC08115904250F4C115DF
:1012000081E0D80708F074C0C03FD10528F3D0654D
:101210006FC0C11590E3D90708F079C0CE019F7067
:10122000E7CF811525E5920758F5811534E5930739
:1012300008F0A6C0811542E5940750F4C11581E578
:10124000D80708F471C0DC2FCC27C16FD06A50C01A
:10125000982F969596959E0123703327C115D345F7
:1012600008F07FC0C1E0D0E002C0CC0FDD1F2A959E
:10127000E2F720E2929FC0011124C82BD92B6FC046
:10128000C11589E5D807A8F4C11598E5D90708F074
:101290007CC0C11526E5D20708F09ECF8C2F0E9496
:1012A0006F0AC82FD0E0DC2FCC27CC27DF71D062AB
:1012B0001FC0C1153AE5D30708F46CC0CE019056A3
:1012C0008115904208F088CF8D2F8F710E946F0A90
:1012D00090E0982F882788279F719C012C2BE9018B
:1012E000E6CFC55AD0E0CD5BDE4FC881D0E0D064F8
:1012F000CE01DF91CF910895C85AD0E0CC0FDD1F09
:10130000CB5EDE4F0990D881C02DD464F1CFCE01E1
:101310009927D3FF03C0EC01D86CEACFEC01D06C65
:10132000E7CFDF70D06AE4CFCE01E4E096958795F1
:10133000EA95E1F783702C2F26952695237090E28D
:10134000299F90011124382B8C2F8370C1E0D0E0AD
:1013500002C0CC0FDD1F8A95E2F7C22BD32BDC68CD
:10136000C7CFC1E0D0E002C0CC0FDD1F2A95E2F765
:1013700030E2939FC0011124C82BD92BDA68B8CF73
:10138000D82FCC27C46FD06AB3CFDC2FCC27C06F47
:10139000D06AAECF8C2F8F700E946F0A34E0D69542
:1013A000C7953A95E1F7CF709C2FEC01D069A0CF9B
:1013B00082389105B1F1B0F48133910509F475C01B
:1013C00048F48932910509F469C08A32910509F41B
:1013D00073C008958533910509F459C08933910587
:1013E00001F10895833E9105A9F138F4803E9105FD
:1013F000F9F0823E910549F10895863E9105A9F1E3
:10140000873E9105C9F1843E910519F52091960218
:1014100021FF1FC08091950284FD14C087EE90E0EB
:101420000895209195022370A1F080EE90E0089538
:101430002091950220FD47C03091960230FF09C0EF
:1014400024FF44C090E080E004C02091950222FD7A
:10145000F7CF08952091950222FD3BC0309196026E
:1014600030FDE3CF24FFF5CFEDCF2091950223FF90
:10147000F0CF24FDE7CFD2CF2091950223FD2CC0E1
:101480003091960231FFEECF84EE90E008952091E6
:10149000950225FFDECF89E290E008952091950224
:1014A00025FFD7CF85E390E008952091950226FF90
:1014B000D0CF8AE290E008952091950226FFC9CF0F
:1014C00081E390E0089589E390E0089583EE90E051
:1014D000089582EE90E0089586EE90E00895909150
:1014E000950292FF06C0282F28712830F9F4877FD3
:1014F000846093FF06C0282F28712831F1F4877E7D
:1015000084612091960220FF06C0382F3871383050
:10151000D9F4877F816021FF06C0282F28712831E8
:10152000D1F4877E816194FD877E0895282F2471F0
:101530002430F9F68B7F8860DCCF282F247124318A
:1015400001F78B7E8861DDCF382F3171313019F78B
:101550008E7F8860E0CF282F2171213121F78E7E88
:101560008861E1CF0C94D8060C94D906E82FF0E0FE
:10157000EE0FFF1FE957FD4F808191810895089577
:1015800080EA8A95F1F70895CF93DF93A6E5B1E05D
:101590004BE551E0C1E0D0E08D91E82FE295EF708E
:1015A000F0E061A18F709E0101C0220F8A95EAF7D9
:1015B000922F9095962391A382A1822B82A34A1702
:1015C0005B0751F7A6E4B1E061E070E08D91E82F90
:1015D000E295EF70F0E041A18F709B0101C0220FF6
:1015E0008A95EAF7922F9095942391A382A1822B5A
:1015F00082A381E0A635B80749F710927E021092C7
:101600007D0210928802109287021092800210923E
:101610007F0210928A021092890210928202109226
:10162000810210928C0210928B021092840210920E
:10163000830210928E0210928D02109286021092F6
:1016400085021092900210928F0285E00E94B30BE7
:10165000DF91CF910C944E088F929F92AF92BF92E0
:10166000CF92DF92EF92FF920F931F93CF93DF936E
:1016700086E5E82E81E0F82E0DE712E0912CAA24F1
:10168000A394B12CF70181917F01C82FC295CF702F
:10169000D0E099A18F70650101C0CC0C8A95EAF762
:1016A000892F8C2989A38AA18C2C809488218AA3D4
:1016B0000E94C00AE6E4F1E050E040E030E020E0C3
:1016C0006191A62FA295AF70B0E090968C9190E0BA
:1016D0006F7002C0959587956A95E2F780FD3EC0D0
:1016E000C501042E02C0880F991F0A94E2F7282B27
:1016F000392B4F5F5F4F4031510511F789A1882287
:1017000089A28AA1C82ACAA2F801808191812817DA
:10171000390739F13183208381E0982A0E5F1F4F0A
:10172000FBE5EF16F1E0FF0609F0ACCF292D45E00F
:1017300067E872E08DE792E00E94B40B0E945808BF
:10174000892DDF91CF911F910F91FF90EF90DF9046
:10175000CF90BF90AF909F908F90089590E080E0E1
:10176000C6CF80E0DACF0895FF920F931F93CF93F7
:10177000DF93F82E092F162FD72FC42F222349F0DD
:1017800081E080939E010E94F81D90939D018093BB
:101790009C0180919E018823A1F080919C019091F1
:1017A0009D010E94101E069760F0EF2DF02FA12FD3
:1017B000BD2F90E080E0D0E08C179D0744F01092A0
:1017C0009E01DF91CF911F910F91FF90089521917C
:1017D00031912D933D930196EFCF82E290E00E94EC
:1017E000E528803289F483E290E00E94E528893080
:1017F00059F484E290E00E94E52891E0883009F0F5
:1018000090E0892F8170089580E0FCCFCF93C82F9E
:101810006FEF811160E282E290E00E94F3286FEFA7
:10182000C11169E083E290E00E94F3286FEFC111DB
:1018300068E084E290E0CF910C94F32880E00E946D
:10184000060C0C940D1C089585E290E00E94E5289A
:10185000682F70E090E080E0089585E290E00C94BD
:10186000F3280E94230C0E94ED0B81110CC060E054
:1018700070E0CB010E942D0C0E94860D0E94720E1A
:1018800081E00C94060C0895CF93FB01C281CC2318
:1018900009F19C0122513F452031310520F582514B
:1018A0000E94820EC0E08C2FCF91089581E00E94AB
:1018B000DA1943E062E081E00E943C08F3CF81E066
:1018C0000E94FB1943E062E081E00E943C08EBCFFC
:1018D00082E0F6CF8031FFE59F0789F381319F4594
:1018E000B9F3C1E0E0CF8031EFE59E07F9F2813135
:1018F0009F45C9F682E0DBCF2FEFFC0120830895DE
:10190000EF92FF920F931F93CF93DF93EC01062F7B
:10191000E881E150E33108F05EC0F0E0E75DF64DAC
:101920000C94C428198289E08A83602FCE01DF914C
:10193000CF911F910F91FF90EF900C94E32189813B
:10194000823069F0833071F08130D9F40E94041E36
:101950000E94CA286A837B838C839D83E6CF0E9482
:10196000240CF6CF7E0110E0812F0E94B60AF70109
:10197000928383831F5FF2E0EF0EF11C1530A1F715
:10198000D4CF602FCE010E947C0CCFCF89818230D2
:10199000C1F76A817B818C819D810E94CA280E9447
:1019A0002D0CC3CF4B816A8189810E94580D9827E5
:1019B000892798279D838C83B8CF2C813D8132273E
:1019C000232732274B816A8189810E94710DADCF17
:1019D0000E94860DAACF8FEF8883A7CF0E941B0E8F
:1019E0008983A3CF0E941D0E9827892798279A8361
:1019F00089839BCF6B8170E089819A81AE014C5FB6
:101A00005F4F9827892798270E94200E8ECF6B81E1
:101A100070E089819A81AE014C5F5F4F98278927DA
:101A200098270E94470E81CF0E94720E7ECF0E949F
:101A3000450DD6CF6B8170E089819A81AE014C5FF4
:101A40005F4F9827892798270E94BE0D6ECF6B8124
:101A500070E089819A81AE014C5F5F4F982789279A
:101A600098270E94E40D61CF0E941E0C5ECF0E9459
:101A7000E3212FEF81EE94E0215080409040E1F788
:101A800000C000000E94431E50CF84E0089590E201
:101A9000699FB001112450E0440F551F640F751F5A
:101AA00090EA899F600D711D1124CB0186960895DF
:101AB0000F931F93CF93DF930E94470D8C010E94D9
:101AC000E528C82FD0E0DC2FCC27C80101960E9462
:101AD000E5289E01282BC901DF91CF911F910F911D
:101AE00008950F931F93CF93DF93122F032F0E941C
:101AF000470DEC01602F0E94F328612FCE01019663
:101B0000DF91CF911F910F910C94F328AF92BF9268
:101B1000CF92DF92EF92FF921F93CF93DF9389EBE7
:101B2000C82E80E0D82ED0E07601C0E014C0F501C8
:101B300025913491412F6C2F8D2F0E94710D82E0E1
:101B4000A80EB11C1F5F103191F780E2E80EF11C66
:101B5000CF5FC53019F0570110E0E9CFDF5F80EAB1
:101B6000C80ED11CD43001F7DF91CF911F91FF90A7
:101B7000EF90DF90CF90BF90AF900895EF92FF92DB
:101B80000F931F93CF93DF93EC018A017C01E60E44
:101B9000F71ECE018696CE15DF0539F4DF91CF9181
:101BA0001F910F91FF90EF900895C03822E0D20767
:101BB00040F40E94E528F80180830F5F1F4F2196B3
:101BC000E8CFF8011082F9CFCF92DF92EF92FF9227
:101BD0000F931F93CF93DF937C016A018C01060F53
:101BE000171FEC01CE018696C017D10749F4DF918B
:101BF000CF911F910F91FF90EF90DF90CF900895BC
:101C0000C03822E0D20740F4FE01EE19FF09EC0DC6
:101C1000FD1D60810E94F3282196E4CF462F843079
:101C200038F4753028F4603118F4672F0C94580D8F
:101C300090E080E0089580E108958AE591E00895BC
:101C4000EF92FF920F931F93CF93DF93EC018A01E2
:101C50007C01E60EF71ECE018A559D4FCE15DF059D
:101C600039F4DF91CF911F910F91FF90EF9008957C
:101C7000CA3521E0D20740F40E94E528F8018083AC
:101C80000F5F1F4F2196E7CFF8011082F9CFCF9257
:101C9000DF92EF92FF920F931F93CF93DF937C011C
:101CA0006A018C01060F171FEC01CE018A559D4F6A
:101CB000C017D10749F4DF91CF911F910F91FF9089
:101CC000EF90DF90CF900895CA3521E0D20740F41D
:101CD000FE01EE19FF09EC0DFD1D60810E94F32845
:101CE0002196E3CFCF93DF93C6EAD2E060E0CE0146
:101CF0000E94F3282196C11584E0D807B9F7DF9137
:101D0000CF910895DF92EF92FF920F931F93CF939D
:101D1000DF9300D000D0CDB7DEB7F82E8FE08F155F
:101D200040F08FEF93E00E94E52806EA12E0882356
:101D3000C1F00F900F900F900F90DF91CF911F91F6
:101D40000F91FF90EF90DF900895011584E0180740
:101D500081F3C8010E94E528811101C0FA940F5F48
:101D60001F4FF110F2CF19821A821B821C82DD24D0
:101D7000D39478018FEFE81AF80AC8010E94E52889
:101D800089831A828823A9F29FEF980F933078F401
:101D90008A83D9820E5F1F4FC7010E94E5288B837B
:101DA000882339F2CE0101960E94E507E2CF870130
:101DB000F9CFAF92BF92CF92DF92EF92FF920F9343
:101DC0001F93CF93DF937C015B01C42FD22FFC01C3
:101DD00082818823F9F04093A1010E94F81D90931D
:101DE000A00180939F0180E28C0F883008F061C0D1
:101DF000C77081E001C0880FCA95EAF7DF91CF91E3
:101E00001F910F91FF90EF90DF90CF90BF90AF9018
:101E10000C9461131091A101141340C080919F0193
:101E20009091A0010E94101E6C01B701C5010E9493
:101E30005318C816D90690F5C0E2CD0F1D17B9F09A
:101E400080E2810F883040F4177081E001C0880F74
:101E50001A95EAF70E946813C83048F481E09D2F74
:101E6000977001C0880F9A95EAF70E946113802F3E
:101E70000E944E13C830E8F4D77081E001C0880F8B
:101E8000DA95EAF7DF91CF911F910F91FF90EF90D4
:101E9000DF90CF90BF90AF900C94681380E28C0FCE
:101EA000883038F4C77081E001C0880FCA95EAF71E
:101EB000E9CFDF91CF911F910F91FF90EF90DF90CD
:101EC000CF90BF90AF9008950F939C01CB01233F1B
:101ED0004CE5340759F1A8F4283DFCE53F0701F132
:101EE000293D4CE53407D1F1273D3C4591F406E20C
:101EF00021EE41EE67ED7CE50E94D90E80E00F9166
:101F00000895253FFCE53F07E9F0B0F0263F3C454A
:101F1000F9F0FC018281882339F11092A101EFCF01
:101F200007E225EE45EE68ED7CE5E6CF06E221EE20
:101F300040EE63EF7CE5E0CF07E225EE44EE64EF90
:101F40007CE5DACF06E221EE42EE65EF7CE5D4CF08
:101F500007E225EE46EE66EF7CE5CECF08E221E013
:101F600045EE69ED7CE5C8CF81E0C9CFCF93DF9323
:101F7000EC01FB018281882309F419C1C230FCE520
:101F8000DF07C0F1C6319CE5D90730F09E012A5F1A
:101F90003C452930310570F50E94261C909396022D
:101FA00080939502C031ECE5DE0709F4CFC008F05C
:101FB0005BC0C8308CE5D80709F4B6C088F5C430DA
:101FC000ECE5DE0709F4A8C0C0F4C2308CE5D80700
:101FD00009F49CC0809195028260C330DC4509F40D
:101FE00098C080919502909196020E94341C0E94A4
:101FF000DD1580E0DF91CF91089580919502806199
:10200000C630ECE5DE0709F484C080919502886053
:10201000C730DC4508F47DC080919502806279C0AC
:10202000CC308CE5D80709F489C070F48091950212
:102030008C60CA30ECE5DE0709F46BC008F478C0A8
:10204000809195028E7F65C0CE308CE5D80709F46B
:1020500079C0809195028B7FCF30DC4508F459C060
:10206000809195028F7E55C0CB3FECE5DE0709F4E9
:1020700057C030F5C3318CE5D80709F46FC078F448
:10208000C131ECE5DE0709F465C0C231DC4509F079
:10209000A8CF0E94DD15809195028F773AC0C53197
:1020A0008CE5D80709F462C008F476C080919602E6
:1020B0008160CA3FDC4509F094CF8093960291CFAE
:1020C000CF3FFCE5DF0709F44DC088F4809196020C
:1020D0008D7FCD3F9CE5D90781F3809196028E7F5D
:1020E000CE3FDC4550F3809196028360E6CFC1304D
:1020F000FDE5DF0709F459C008F444C080E0C230B0
:10210000DD4509F06ECF0E94B21C6BCF8091950225
:1021100081608093950265CF809195028460F9CFAC
:10212000809196028260C9CF809195028064F1CF40
:102130000E94DD15809195028068EBCF8091950219
:102140008D7FE7CF80919502877FE3CF80919502C5
:102150008F7DDFCF809195028F7BDBCF80919502C1
:10216000837FD7CF809196028C7FA7CF80919502F5
:1021700082FB992790F921E0922790FB82F990FB4E
:1021800083F9C7CF80919602982F909591708E7F9A
:10219000892B90FB81F991CF0E94DD1590919502DA
:1021A000892F97FB87F98058B4CF81E0ACCF81E0CD
:1021B00021CFCF93DF93EB0186319C4511F50E942F
:1021C0005E1B9A81992399F08A7A91E009F490E054
:1021D0009093A201811109C089E20E94391B0E94DB
:1021E000AA1B80E0DF91CF91089585E3F6CF80911F
:1021F000A201811104C089E20E94401BF0CF85E357
:10220000FBCF81E0EFCF9093A8018093A7010895C1
:10221000E091A701F091A801309721F00190F081A1
:10222000E02D099480E00895E091A701F091A801C4
:10223000309799F020911401222359F020919502B2
:1022400027FF07C0DC012C9111962C93119725E0F4
:102250002C930280F381E02D09940895E091A70169
:10226000F091A801309739F022E0DC012C93048032
:10227000F581E02D099408952091A5013091A601E2
:102280002817390771F09093A6018093A501E0917A
:10229000A701F091A801309721F00680F781E02D89
:1022A000099408952091A3013091A40128173907BA
:1022B00071F09093A4018093A301E091A701F091A4
:1022C000A801309721F00084F185E02D099408954C
:1022D00085B7806885BF85B7806885BF08950895F4
:1022E00008950C946F1108950C9473110E94681155
:1022F0000E9470110C94711181E008950C947C116E
:102300000E94EF1D0E94C40A0E94310C0E94801E90
:102310000C9474119F92AF92BF92CF92DF92EF9282
:10232000FF920F931F93CF93DF93CDB7DEB72A971A
:102330000FB6F894DEBF0FBECDBF0E942C0B0E94DB
:102340007E11882309F470C05AEAA52E51E0B52EFB
:1023500010E000E0902E802F0E94B60A6C01F5017B
:10236000E190F1905F01E816F90609F457C08091F9
:102370004C0281FD0E94BF0A97012C253D2580E07B
:10238000EE24E394F12CA9014E215F21452B09F4A1
:102390003FC08E839F82CE20DF2081E0CD2809F4CC
:1023A00080E088870E94F81D8160782F9A8789874E
:1023B0004E815F8168858A850E943712000F111F48
:1023C000F801E655FE4F80819181E826F926F182D9
:1023D000E0820E942B200E9408119091A901891788
:1023E000A1F10E9408118093A9012A960FB6F894D2
:1023F000DEBF0FBECDBFDF91CF911F910F91FF9038
:10240000EF90DF90CF90BF90AF909F900C946008BA
:102410008F5FEE0CFF1C803109F0B5CF0F5F1F4FAF
:102420000530110509F096CF8FEF89838A831B82CF
:102430000E94F81D8160782F9D838C8349815A8189
:102440006B818D810E943712C4CF2A960FB6F89403
:10245000DEBF0FBECDBFDF91CF911F910F91FF90D7
:10246000EF90DF90CF90BF90AF909F900895CF9363
:10247000DF93CDB7DEB72B970FB6F894DEBF0FBE54
:10248000CDBF4F83588769877A878B871E821D82CD
:1024900085E0FE013796DE01119601900D928A9536
:1024A000E1F749815A816B817C818D819E812B96D8
:1024B0000FB6F894DEBF0FBECDBFDF91CF910C9465
:1024C0005618FC01808191810C940B1BCF93C82F6F
:1024D000882309F48BC08238C1F40E94081181FD61
:1024E00085C089E30E94391B0E94AA1B2FEF81EE51
:1024F00094E0215080409040E1F700C0000089E363
:102500000E94401BCF910C94AA1B8338A1F40E9417
:10251000081180FD6BC083E50E94391B0E94AA1B35
:102520002FEF81EE94E0215080409040E1F700C011
:10253000000083E5E5CF8438A1F40E94081182FDF4
:1025400055C087E40E94391B0E94AA1B2FEF81EE21
:1025500094E0215080409040E1F700C0000087E403
:10256000CFCF8CEF8C0F813A90F46C2F80910001CB
:10257000909101010E94CB1C882329F08C2F0E948E
:10258000401B0E94AA1B8C2F0E94391BBBCF80E2EC
:102590008C0F883048F4C77081E001C0880FCA955D
:1025A000EAF70E94611BAECFEBE5EC0FE33040F49D
:1025B000F0E0E757FE4F808190E0CF910C943C1102
:1025C000E8E5EC0FE73150F4F0E0EE0FFF1FE55ABD
:1025D000FE4F80819181CF910C945211C03F30F019
:1025E0008C2F0E94251FCF910C941020CF9108951D
:1025F000882309F452C0823871F40E94081181FFC7
:102600004CC089E30E94391B0E94AA1B89E30E94E7
:10261000401B0C94AA1B833859F40E94081180FFB8
:102620003CC083E50E94391B0E94AA1B83E5EFCFC3
:10263000843859F40E94081182FF2FC087E40E9459
:10264000391B0E94AA1B87E4E2CF9CEF980F913AB6
:10265000F0F290E2980F983050F4877091E001C04A
:10266000990F8A95EAF7892F0E94671BD2CF9BE5C5
:10267000980F933020F490E080E00C943C1198E5A2
:10268000980F973120F490E080E00C945211803F35
:1026900020F00E948D1F0C9410200895CF93C82F16
:1026A0000E946612C93349F42FEF87EE93E0215060
:1026B00080409040E1F700C000008C2FCF910C9437
:1026C000F812882321F00E94611B0C94AA1B089524
:1026D000882321F00E94671B0C94AA1B0895BF92C7
:1026E000CF92DF92EF92FF920F931F93CF93DF93DE
:1026F0006C01D62FC72FFC01058102950F70128146
:1027000011110E947E1B0E94571BE82E882391F016
:102710001123D1F08C2F807F803421F080E28D0F47
:10272000883090F082E00E94F51B0E94571B91E0D8
:10273000E82EE926BC2EB2949FE0B922EB2DF0E002
:10274000E45CF64D0C94C428E12CF4CF0C2F0F70F0
:10275000C07F11F00295007F1123A9F0002359F0EA
:1027600080E28D0F883010F0D11109C0802F0E94B7
:10277000611B0E94AA1B8D2F0E94661214C0802F1D
:102780000E94711BF6CF8D2F0E94F812002359F082
:1027900080E28D0F883010F0D1112CC0802F0E9464
:1027A000671B0E94AA1B2B2D2850330B24303105A8
:1027B00020F40E9408110E946008EE2009F49EC1D6
:1027C0000E94531B80FD9AC1F60112820E944D1B8C
:1027D0000E94DA19C6010E949F150E944D1BDF91CD
:1027E000CF911F910F91FF90EF90DF90CF90BF900E
:1027F0000C94FB19802F0E94771BD3CFFC2FFF7006
:10280000FF2EC07FC03219F0F29480EFF822DD2352
:1028100069F0D13049F1112391F1002351F1F60112
:10282000858180FFA8CF8F70858323C0112381F01D
:10283000011106C00E94911B8F290E946113B3CF22
:102840000130C1F70E94911B8F290E94971BABCFCB
:10285000011106C00E94A01B8F2D0E946813A3CFF8
:10286000013009F4A0CFF6CF112329F0063008F08B
:102870009ACF8F2DE2CF053008F095CFEDCF002312
:1028800059F3D93349F4FFEF27EE33E0F1502040FC
:102890003040E1F700C000008D2F0E94F81283CF76
:1028A0008C2F86958695837069F0813009F07BCFF7
:1028B0008D2F9C2F9370111102C090E080E00E9438
:1028C000521171CF8D2F9C2F9370111102C090E087
:1028D00080E00E943C1167CF8D2F112329F00E94C8
:1028E000251F0E9410205FCF0E948D1FFACF8C2FD2
:1028F000837009F041C0111156CF4D2F4295469576
:102900004770440F440F0D2F0F7010E030E020E0AF
:10291000042E04C0000F111F221F331F0A94D2F788
:1029200060E070E0CB01D4FF0FC06FE070E080E0AA
:1029300090E004C0660F771F881F991F4A95D2F751
:102940006095709580959095C695C695C370602BDF
:10295000712B822B932BC23049F058F4C13019F0FF
:102960000E948C1920CF0E947A191DCF0E949E19B7
:102970001ACF0E94781917CF8695112311F08C2F4A
:102980008170882309F40FCF4D2F429546954770EB
:10299000440F440F0D2F0F7010E030E020E0042EA4
:1029A00004C0000F111F221F331F0A94D2F760E0EA
:1029B00070E0CB01D4FF0FC06FE070E080E090E0EA
:1029C00004C0660F771F881F991F4A95D2F760953C
:1029D000709580959095C695C695C370602B712BA8
:1029E000822B932BC23049F058F4C13019F00E9469
:1029F000511AD9CE0E943F1AD6CE0E94631AD3CE66
:102A00000E94B419D0CECF70112329F08C2F0E94D0
:102A1000DA198D2F12CF8D2F0E9468138C2F0E94F0
:102A2000FB19C1CED23F89F160F4D03FC9F0D13F4C
:102A300029F1112309F442C001119DCE8C2F8F7111
:102A400021C0D33F39F1D43FA1F7112369F1CF71F0
:102A50008C2F0E94DA1963E08C2F0E94E01BA3CE1A
:102A6000112341F0053008F09ECE8C2F8F710E940B
:102A70001E1A99CE063008F096CEF7CF8C2F8F71A4
:102A8000112369F20E94DA198ECE8C2F8F711123D7
:102A9000C9F3C5CF112329F08C2F8F710E94C5195E
:102AA00082CE0E94C0197FCE81E00E94F51B0230C9
:102AB00008F479CE82E00E94F51B75CE002359F010
:102AC000D93309F0E9CE8FEF97EEE3E081509040E3
:102AD000E040E1F7DFCE8C2F8F71A1CF4C2F4F70EC
:102AE0006D2FC6010E94CC060E94F0185CCE4C2FC0
:102AF0004F706D2FC6010E94BA0855CEDF91CF915D
:102B00001F910F91FF90EF90DF90CF90BF900895AD
:102B10000F931F93CF93DF93EC01688179818A81B2
:102B20000E94151B8C010E94751A0E947719B8012A
:102B3000CE01DF91CF911F910F910C946F13CF9322
:102B4000DF93EC018B819C81892B29F0888199810D
:102B500089238F3F59F4DF91CF910895CE010E94D0
:102B60008815CE01DF91CF910C942607CE010E94EB
:102B700078088111F3CF0E94571B882361F38A8163
:102B8000882349F382E0DF91CF910C94F51B0E94DA
:102B90007E1B0E948E1B0E94AA1B0E9437210E944E
:102BA000102090E080E00E943C1190E080E00C94C6
:102BB00052110E94471B0C94C7150E946E1B0C9467
:102BC000D915E92FE295EF70E250EE3070F4F0E0A5
:102BD000E45BF64D0C94C428803F19F020F4883E45
:102BE00020F481E00895843FE1F380E00895883E79
:102BF000C0F3813FD1F7F5CF93FB882780F9089583
:102C00000E940B1B0C94E115CF93DF9300D000D0F2
:102C10000F92CDB7DEB70F900F900F900F900F90DF
:102C2000DF91CF910895CF93DF9300D000D000D0F3
:102C3000CDB7DEB726960FB6F894DEBF0FBECDBF78
:102C4000DF91CF9108951F93CF93DF93C091B5018A
:102C500016E08091B6018C1304C0DF91CF911F91D3
:102C60000895D0E01C9FF0011D9FF00D1124E95440
:102C7000FE4F4081518162817381848195810E94E0
:102C800013162196C770E5CF4091E7015091E801F6
:102C90006091E9017091EA018091EB019091EC0162
:102CA0000C9413161F93CF93DF938091EC01807FD8
:102CB000A9F48091E901882389F08091B501C09140
:102CC000B6016091E7017091E801A091EA01B0912D
:102CD000EB01D62FD72316E0C81304C0DF91CF91A4
:102CE0001F91089590E0109711F0DF3F19F40196BD
:102CF0008770F2CF189F9001199F300D1124F901B0
:102D0000E954FE4F41814713F2CF40814613EFCF84
:102D100042814111ECCF438154814A1B5B0B483CFB
:102D2000510528F78091EC018F7080618093EC0150
:102D3000F901E454FE4F80818F708061808387EEBB
:102D400091E00E949F15DF91CF911F910C94231663
:102D5000AF92BF92CF92DF92EF92FF920F931F93A9
:102D6000CF93DF93CDB7DEB761970FB6F894DEBF90
:102D70000FBECDBF8C0185E0F801DE011D960190EC
:102D80000D928A95E1F7F80140815181E28087EE4A
:102D9000C82E81E0D82E6091EA017091EB01611597
:102DA000710509F461C19091E7012091E801892F33
:102DB00082238F3F09F458C1A380B480F090E901C9
:102DC000F501E61BF70BFF2009F4FCC08091EC0134
:102DD000382F307FE83CF10508F0B2C0311179C0DE
:102DE000FE2C251323C0941321C0E1101FC08F7047
:102DF00080618093EC010E944416C6010E949F15D9
:102E00008091EC01F80185838F2D61960FB6F894BF
:102E1000DEBF0FBECDBFDF91CF911F910F91FF900D
:102E2000EF90DF90CF90BF90AF900895AB2829F03E
:102E3000842F85238F3F09F033C180E0F82FF17094
:102E4000DF2E80FF3CC08091B5012091B60136E0B5
:102E5000821315C04D875E878D859E850E940B1B52
:102E6000292F22952F702230F0F0243018F59F7012
:102E7000F1F0F8019581907FD1F4D12C1EC090E043
:102E8000389FF001399FF00D1124E954FE4F618104
:102E9000651306C06081641303C062816E110FC0A8
:102EA00001968770D5CF9F7011F0882331F3805E33
:102EB000883018F3C8010E949F15FD2CA5CFEE2085
:102EC00009F4A2CF8091EC0181608093EC01F12C98
:102ED0009BCF251306C0941304C0F801EE2009F41B
:102EE0008DC04D875E878D859E850E940016882344
:102EF00019F1EE2009F18091EC01803270F02091FF
:102F0000E7013091E80138872F831986BB86AA86AE
:102F10008C87CE0107960E949F1586E0F801A7EEE8
:102F2000B1E001900D928A95E1F70E9452160E943D
:102F30004416FF24F39468CFC8010E949F15F9CF6F
:102F4000311113C07A2DB98AA88A6E2D89890E9401
:102F5000041687EE91E00E949F1586E0F60111921B
:102F60008A95E9F70E944416B2CF25130FC0941337
:102F70000DC0E1100BC0F8018583C8010E949F15A8
:102F800086E0F60111928A95E9F73ECF4D875E877C
:102F90008D859E850E940016882371F2EE2061F2D5
:102FA0008091EC01803208F4B8CF2091E701309194
:102FB000E8013A8329831B82BD82AC828E83CE01D5
:102FC0000196A9CFE83CF10508F041C0FE2CEE20A7
:102FD00009F4B2CF25132AC0941328C08091EC01C4
:102FE00080FD1BC0982F907FC1F0F8018583903F32
:102FF00031F0982F907F905F8F70892B8583C80167
:103000000E949F1586E0F801A7EEB1E001900D92B5
:103010008A95E1F70E944416F7CE86E0F801A7EE04
:10302000B1E001900D928A95E1F7EECE4D875E8773
:103030008D859E850E94001681116FCF8091EC01D5
:1030400081608093EC01C8010E949F15DDCE7A2D2E
:10305000B98AA88A6E2D89890E94041686E0F60135
:1030600011928A95E9F7D6CFEE2009F465CF4D8706
:103070005E878D859E850E940016F82E882309F4B0
:103080005BCF86E0F801A7EEB1E001900D928A9542
:10309000E1F787EE91E00E9461120E945216BACFCA
:1030A00081E08E25CBCE88EC90E008951F93CF93DE
:1030B000DF93CDB7DEB72C970FB6F894DEBF0FBE07
:1030C000CDBF4F83588769877A878B879C87CE01CE
:1030D00007960E94A816882369F08A859B85892B0C
:1030E00039F04F815885842F85238F3F09F071C0B7
:1030F00016E05FC086E0FE013796DE011196019072
:103100000D928A95E1F78A859B85892B89F38F81BA
:10311000988589238F3F61F32091B60130E0C90182
:103120000196877099274091B5014817190671F4E7
:103130000E94DD151092B6011092B50186E0E7EE0F
:10314000F1E0DF011D928A95E9F7D2CF96E0929FD8
:10315000D001939FB00D1124A954BE4FFE013196AA
:1031600001900D929A95E1F78093B6010E94231683
:10317000BFCF819FC001112489549E4F0E94A81681
:103180008823E9F0E091B5011E9FF0011124E95474
:10319000FE4F4081518162817381848195810E94BB
:1031A00013168091B50190E001968770992780935E
:1031B000B5018091B5019091B6018913DACF2C96B3
:1031C0000FB6F894DEBF0FBECDBFDF91CF911F9138
:1031D000089569857A858B859C850E94131688CF12
:1031E000EF92FF920F931F93CF93DF938C01892B64
:1031F00081F0F12CEE24E394E8012196F80184910A
:10320000843770F4843008F05FC08130B1F08230D0
:10321000A1F1DF91CF911F910F91FF90EF90089551
:10322000853709F44CC008F43DC09CE7980F9037EF
:1032300080F78F770E94F81249C00E5F1F4FFE0182
:10324000849190E2980F983060F48770FE2D01C051
:10325000FF0F8A95EAF78F2F0E94811B0E94AA1BFD
:1032600002C00E9466128F2D815030F2EFE9FFE01C
:103270003197F1F700C00000F7CF0E5F1F4FFE013E
:10328000849190E2980F983050F48770FE2D01C021
:10329000FF0F8A95EAF78F2F0E94871BDFCF0E94CE
:1032A000F812E1CF0E5F1F4FFE01C491C150D8F25A
:1032B0008FE99FE00197F1F700C00000F7CF0E5FA4
:1032C0001F4FFE01F490CFCF0E9466128E01CBCF2C
:1032D00008950C9468190E946919609323027093F1
:1032E000240280932502909326020C94C71508951A
:1032F0000C946B190F931F930091230210912402D9
:103300002091250230912602602B712B822B932B6A
:103310001F910F910C946B190F931F93009123022F
:1033200010912402209125023091260260237123FE
:10333000822393231F910F910C946B190F931F936A
:10334000009123021091240220912502309126023F
:1033500060277127822793271F910F910C946B1977
:103360000C9468190C94B0190E94B21960931F0252
:103370007093200280932102909322020C94C7152F
:1033800060E070E0CB010C94B4190F931F9341E0FF
:1033900050E060E070E08A019B0104C0000F111F43
:1033A000221F331F8A95D2F7C901B8011F910F91CF
:1033B0000C94B4190F931F9341E050E060E070E06B
:1033C00004C0440F551F661F771F8A95D2F780915E
:1033D0001F0290912002A0912102B09122028A0145
:1033E0009B01082B192B2A2B3B2BC901B8011F91DC
:1033F0000F910C94B4190F931F9341E050E060E0DB
:1034000070E004C0440F551F661F771F8A95D2F7DE
:10341000CB01BA01609570958095909500911F023F
:103420001091200220912102309122026023712309
:10343000822393231F910F910C94B4190F931F9320
:1034400041E050E060E070E004C0440F551F661F8B
:10345000771F8A95D2F780911F0290912002A09148
:103460002102B09122028A019B01082719272A27ED
:103470003B27C901B8011F910F910C94B4190F9308
:103480001F9300911F021091200220912102309180
:103490002202602B712B822B932B1F910F910C9486
:1034A000B4190F931F9300911F02109120022091D5
:1034B00021023091220260237123822393231F91E2
:1034C0000F910C94B4190F931F9300911F02109148
:1034D0002002209121023091220260277127822749
:1034E00093271F910F910C94B41908959295907F92
:1034F000890F982F977041E001C0440F9A95EAF721
:1035000086958695869595E0899FF0011124E35173
:10351000FE4F30E020E070E05191DF011197CB01C8
:10352000022E02C0969587950A94E2F781708195E4
:103530008527842385278C932F5F3F4F25303105C6
:1035400059F708959295907F890F982F97708695D7
:103550008695869525E0829FF0011124E351FE4F68
:1035600050E040E080E0219130E0092E02C0369525
:1035700027950A94E2F721703327042E01C0220F09
:103580000A94EAF7822B4F5F5F4F4530510559F798
:103590000895BF92CF92DF92EF92FF920F931F9305
:1035A000CF93DF938C01C0901F02D0902002E09057
:1035B0002102F09022028091230290912402A09196
:1035C0002502B0912602C82AD92AEA2AFB2ACFE18D
:1035D000D0E0BC2ED701C6010C2E04C0B695A7952D
:1035E000979587950A94D2F780FD0EC0219788F7AA
:1035F000B12C8B2DDF91CF911F910F91FF90EF9008
:10360000DF90CF90BF900895B8018C2F0E94C3081F
:10361000019761F3EECFCF93DF93EC010E94C91ABB
:10362000BE01DF91CF910C94C3081F93CF93DF931A
:10363000EB019091B401992331F0CB01DF91CF914F
:103640001F910C940B1B882379F0CB010E94C91A9F
:10365000182F682FCE010E94761ABE01812FDF91AC
:10366000CF911F910C94C308CB010E94A21A182F6E
:10367000F4CF682F80910001909101010C944B1DB3
:10368000682F80910001909101010C94561D80914A
:103690000001909101010C94611D80912702859594
:1036A000859585950895809127028770089590915A
:1036B0002702977081E009F480E0089580914B0221
:1036C000089590914B02892B80934B020895809529
:1036D00090914B02982390934B02089510924B02C5
:1036E000089590914A02892B80934A02089580950B
:1036F00090914A02982390934A02089510924A02A8
:10370000089590914902892B8093490208958095EC
:10371000909149029823909349020895109249028A
:10372000089580912802089508950C94941B909117
:103730002802981721F0809328020C94951B089575
:1037400080912802882329F01092280280E00C94AE
:10375000951B0895E0910001F091010180914B02C9
:103760008083E0910001F0910101808190914A02F3
:10377000892B8083E0910001F0910101808190917B
:103780004902892B808390912802992381F0E0914E
:103790000001F09101018081892B808380910001DB
:1037A000909101010E94B71C81110E94A01B809181
:1037B0000001909101010C94141108950C94DD1BEB
:1037C00098E0899F90011124622B609327020E9448
:1037D000DA19809127028595859585950C94DE1BD5
:1037E0001092270280E00C94DE1B909127028095B6
:1037F000892380932702282F277071F4282F082E01
:10380000000C330B9217130639F085958595859535
:103810000E94FB190C94F01B08956FEF7FEF90E06E
:1038200080E00C94112990E080E00E94ED2821E0D6
:103830008C3E9E4F09F020E0822F089582E090E0B8
:103840000C94E52883E090E00C94E528CF9384E085
:1038500090E00E94E528C82F81E290E00E94E528D0
:10386000982F8C2FCF910895CF93C92F682F84E084
:1038700090E00E94F3286C2F81E290E0CF910C94AD
:10388000F328AB01BC018FE090E00C940529AB015B
:10389000BC0183E190E00C94052960E070E0CB016D
:1038A0000C94471C60E070E0CB010E94411C0C941A
:1038B0004D1C6CEE7EEF90E080E00E94112960E0EC
:1038C00082E090E00E94F32860E083E090E00E94B4
:1038D000F3281092230210922402109225021092D3
:1038E000260260E084E090E00E94F32860E081E23C
:1038F00090E00E94F32860E085E090E00E94F328C9
:1039000060E086E090E00E94F3286FEF87E090E0AF
:103910000E94F32840E050E0BA0188E090E00E9465
:10392000052960E08DE090E00E94F32840E050E03F
:10393000BA0188E190E00E94052960E087E190E00B
:103940000E94F32840E050E0BA018CE190E00E9430
:10395000052960E080E290E00E94F3280C94521C5C
:103960000C94591C682F8EE090E00C94F328FC0115
:10397000329680911401882321F0809195029EE176
:1039800087FF96E080E0915008F40895219122236A
:10399000D1F38F5FF8CF662301F120911401222328
:1039A000F1F02091950227FF1AC0462F46954695C3
:1039B00046954E3190F4677021E030E002C0220F4E
:1039C000331F6A95E2F7840F911DFC01828190E01C
:1039D0002823392381E0232B69F480E00895FC013A
:1039E000329608962191261721F0E817F907D1F7AA
:1039F000F4CF81E008959C01FC0132969FEF80E0B6
:103A00004191461751F09F3F19F4411101C0982F81
:103A10008F5F8630A9F79F3F09F40895290F311D64
:103A200097FD3A95F90162830895FC013296089654
:103A30002191261303C0DF0111971C92E817F907A3
:103A4000B9F70895E62FE695E695E695EE3168F428
:103A5000E80FF92FF11D677021E030E001C0220F5F
:103A60006A95EAF78281822B82830895E62FE69594
:103A7000E695E695EE3170F4E80FF92FF11D6770C9
:103A800021E030E001C0220F6A95EAF7209582819B
:103A900028232283089520911401222329F02091C4
:103AA000950227FD0C94221D0C94FB1C20911401FF
:103AB000222329F02091950227FD0C94361D0C94A9
:103AC000151DFC01329680911401882351F08091DC
:103AD000950287FF06C08EE1DF011D928A95E9F706
:103AE000089586E0F9CF089508950C94741D0E94FE
:103AF000751D80919B02843049F110924D0288E13E
:103B000090E020E40FB6F894A895809360000FBE73
:103B10002093600080E00E9460080E94751D83B7BA
:103B2000817F846083BF83B7816083BF78948895E9
:103B300083B78E7F83BF0FB6F894A89580916000FD
:103B4000886180936000109260000FBE0895089510
:103B5000CF930E94731D0E942C0B0E94A71DC0E0F2
:103B60008C2F0E94B60A892B31F4CF5FC530C1F784
:103B700080E0CF91089581E0FCCF08950C94BD1DA5
:103B80000E94DD150E9408110E9460080C94BE1D61
:103B90001F921FB61F9211248F939F93AF93BF93D1
:103BA00080914D02811113C08091910290919202F7
:103BB000A0919302B09194024196A11DB11D8093F2
:103BC000910290939202A0939302B0939402BF91BA
:103BD000AF919F918F911F901FBE1F90189582E00B
:103BE00084BD93E095BD9AEF97BD80936E000895D4
:103BF0002FB7F8948091910290919202A091930234
:103C0000B09194022FBF08952FB7F894609191025C
:103C10007091920280919302909194022FBF089527
:103C20009C014FB7F8948091910290919202A091DB
:103C30009302B09194024FBF821B930B0895789426
:103C40001F921FB61F9211248F939F93AF93BF9320
:103C50008091910290919202A0919302B09194026E
:103C60000196A11DB11D8093910290939202A093A1
:103C70009302B0939402BF91AF919F918F911F9047
:103C80001FBE1F90189581E08093E00080E2809332
:103C9000D8001092C9008FE19EE40197F1F700C0AF
:103CA000000087E090EBDC018093A4029093A502D2
:103CB000A093A602B093A70288E19CE00FB6F89407
:103CC000A895809360000FBE90936000FFCF0C9486
:103CD0001E0C0E942C0B2FEF86E791E021508040B4
:103CE0009040E1F700C000000E942C0B80E00E9491
:103CF000B60A80FF04C00E94671E0C94431E0895FC
:103D00000E94131C811102C00E94B01C0E941E1C44
:103D100080934C020E94261C9093960280939502F9
:103D20000E94221C682F70E090E080E00E947819C9
:103D300060911F02709120028091210290912202D5
:103D40000C94B2198091540280FF12C06091070157
:103D500085E0689FB0011124759567957595679505
:103D600060387105A8F561157105A1F1862F0895D8
:103D700081FF09C06091070185E0689FB0011124AF
:103D800075956795EDCF6091070182FD0AC080911E
:103D900053028823D1F090910601609107018917A1
:103DA00028F085E0689FB0011124DACF869FB0012A
:103DB000112485E0869F9001879F300D1124692F83
:103DC00070E0C9010E94B028CBCF65E070E0CECF93
:103DD0008FE7089581E008958091540280FF0CC020
:103DE0006091030170E0759567957595679561150C
:103DF000710549F1862F089581FF06C06091030186
:103E000070E075956795F3CF6091030182FD0BC05B
:103E1000909152029923A1F06091020180910301D7
:103E2000961738F0682F70E06038710500F38FE75F
:103E30000895899FC001112470E00E94B028F4CF3A
:103E400061E070E0D7CF81E00895803F31F40E94B7
:103E5000A21E8195809358020895813F19F40E9413
:103E6000A21EF8CF823F31F40E94A21E819580935A
:103E700057020895833F19F40E94A21EF8CF893F8C
:103E800029F40E94EC1E8093590208958A3F21F480
:103E90000E94EC1E8195F7CF8B3F31F40E94EC1EFF
:103EA000819580935A0208958C3F19F40E94EC1E6C
:103EB000F8CF843F31F4809156028160809356029E
:103EC0000895853F21F4809156028260F7CF863FA6
:103ED00021F4809156028460F1CF873F21F48091D4
:103EE00056028860EBCF883F21F4809156028061B2
:103EF000E5CF8D3F31F4809154028160809354026C
:103F000008958E3F21F4809154028260F7CF8F3F55
:103F1000B9F7809154028460F1CF90915702803FAD
:103F200059F48091580287FF0DC0109258029111E8
:103F30000BC01092530208C0813F81F48091580257
:103F400018169CF3992381F08091590290915A029E
:103F5000892B09F064C0109252020895823F49F4FF
:103F600097FFF0CF10925702809158028111ECCF49
:103F7000E0CF833F19F41916ACF3E4CF2091590236
:103F8000893F29F41216F4F610925902DBCF8A3FCA
:103F900019F427FFD7CFF8CF20915A028B3F29F48D
:103FA00027FFD0CF10925A02CDCF8C3F19F41216B2
:103FB000CCF3C8CF843F31F4809156028E7F80933A
:103FC0005602C0CF853F21F4809156028D7FF7CFF6
:103FD000863F21F4809156028B7FF1CF873F21F4F9
:103FE00080915602877FEBCF883F21F48091560263
:103FF0008F7EE5CF8D3F31F4809154028E7F809388
:104000005402A0CF8E3F21F4809154028D7FF7CFD0
:104010008F3F09F097CF809154028B7FF0CF0895A6
:104020000E94F81D9C019091570280915802982B94
:1040300021F03093510220935002909159028091C7
:104040005A02982B21F030934F0220934E0285E5BF
:1040500092E00C942E11EF92FF920F931F93CF9347
:10406000DF9300D000D000D0CDB7DEB786E0E5E525
:10407000F2E0DE01119601900D928A95E1F7E09051
:104080005702F09058020091590210915A02109272
:104090005702109258021092590210925A028E2D15
:1040A0008F2991F080915002909151020E94101E30
:1040B000AC0190915302992309F43FC0809108010B
:1040C0008417150608F447C0802F812B91F080914A
:1040D0004E0290914F020E94101EAC01909152022C
:1040E000992309F477C0809104018417150608F418
:1040F0007FC08091570290915802892B909159026C
:10410000892B90915A02892B11F00E94102086E091
:10411000FE013196A5E5B2E001900D928A95E1F796
:1041200026960FB6F894DEBF0FBECDBFDF91CF91BC
:104130001F910F91FF90EF900895209109018AE05F
:10414000289F900111242417350708F0BDCF9F5FE9
:104150009093530202C09F3FD1F7EE2059F00E9486
:10416000A21E9FEF1E140CF491E0899F802D112454
:1041700080935702FF2059F00E94A21E9FEF1F1448
:104180000CF491E0899F802D112480935802309186
:104190005702332309F498CF20915802222309F4BF
:1041A00093CF45EB3403C0011124992359F0909328
:1041B000570245EB240390011124332339F0309347
:1041C000580282CF81E080935702F3CF81E0809341
:1041D00058027ACF209105018AE0289F900111248E
:1041E0002417350708F085CF9F5F9093520202C0D5
:1041F0009F3FD1F7002359F00E94EC1E9FEF10164D
:104200000CF491E0899F802D112480935902112391
:1042100059F00E94EC1E9FEF11160CF491E0899F5B
:10422000802D112480935A0230915902332309F4CE
:1042300060CF20915A02222309F45BCF45EB34036F
:10424000C0011124992359F09093590245EB24039E
:1042500090011124332339F030935A024ACF81E080
:1042600080935902F3CF81E080935A0242CF86E0D7
:10427000E5E5F2E0DF011D928A95E9F7109253021D
:104280001092520210925402089580917B02089578
:10429000CF93DF9300D00F92CDB7DEB790919B0202
:1042A000943011F589837B836A839093E9008FEFC3
:1042B0009091E800815095FD06C095ED9A95F1F733
:1042C00000008111F5CF8091E80085FF0DC050E01E
:1042D00040E063E070E0CE0101960E94D02380911F
:1042E000E8008E778093E8000F900F900F90DF9199
:1042F000CF910895BC0184E00C944821BC0183E077
:104300000C9448219C0184E08093E9009FEF809108
:10431000E800915085FD06C085ED8A95F1F7000013
:104320009111F5CF8091E80085FF0CC050E040E08E
:1043300066E070E0C9010E94D0238091E8008E778A
:104340008093E8000895CF93DF93EC0180911401EE
:104350008823B1F18091950287FF32C060E284E04A
:104360008093E9008FEF9091E800815095FD06C0A1
:1043700095ED9A95F1F700008111F5CF8091E80055
:1043800085FF1BC08091140170E050E040E0811176
:1043900004C050E040E068E070E0CE010E94D0230D
:1043A0008091E8008E778093E80080E2FE01ABE523
:1043B000B2E001900D928A95E1F7DF91CF910895D7
:1043C00068E081E0CDCFCF93FC01603221F5809190
:1043D0009B02843001F5C091E900CF702091EC0080
:1043E000922F917020FD90E8C92B82E08093E90024
:1043F0008091E80080FF0CC050E040E060E270E097
:10440000CF010E94D0238091E8008E778093E8004E
:10441000CF70C093E900CF91089580919A028111E5
:1044200009C00E94AF250E940C268091E2008460A2
:104430008093E200089510929A02089508950895D5
:104440000C94C01D42E061EC81E00E942B2542E209
:1044500061EC84E00E942B2542E261EC82E00E9444
:104460002B2542E260EC83E00C942B2580919D0289
:10447000833009F461C030F48130D1F1823009F425
:104480009DC008958A3009F489C08B3009F46FC04B
:10449000893009F050C080919C02813209F04BC0F4
:1044A0008091A0029091A102009719F0029709F063
:1044B00042C08091E800877F8093E8008091E80007
:1044C00082FF35C09091F3008091F200029729F4A9
:1044D0008091F1008B7F813021F48091F1008093F5
:1044E0007B028091E8008B778093E8000C945F2535
:1044F00080919C02813AF9F48091E800877F809353
:10450000E8008091A0029091A102892B61F460E201
:104510008BE592E070E00E946E248091E8008B773A
:104520008093E800089560E090E080E0F3CF809110
:104530009B028111C3CF089580919C02813AD9F7E3
:104540008091A0029091A102892BA9F78091E800A7
:10455000877F8093E8008091E80080FFFCCF809106
:1045600014018093F1008091E8008E77BDCF809197
:104570009C02813201F78091A0029091A102892BC7
:10458000D1F68091E800877F8093E8000E945F2544
:1045900080919E02809314010C94DD1580919C0201
:1045A000813249F68091E800877F8093E8000E947D
:1045B0005F2580919F0280937C02089580919C02E8
:1045C000813A09F0B8CF8091E800877F8093E800B6
:1045D0008091E80080FFFCCF80917C02C2CFCDB7F4
:1045E000DEB7A0970FB6F894DEBF0FBECDBF84B77D
:1045F000877F84BF0FB6F894A8958091600088618A
:1046000080936000109260000FBE80E890E00FB6CB
:10461000F89480936100909361000FBE0E94761120
:104620000E94AF250E940C268091E2008460809356
:10463000E20078940E9495280E9480118AE091E01F
:104640000E94031113E080919B02853039F10E9492
:104650008A1180919B028430B1F71093E900809118
:10466000E80082FFF0CF8091E80090E085FF09C06C
:1046700050E040E060E270E0CE0101960E941F240D
:1046800091E08091E8008B778093E8009923D9F23C
:1046900060E2CE0101960E94800CD5CF0E94771D6A
:1046A00080919902882379F20E94A81D882359F2EB
:1046B0000E94BA23C8CF0C945D23292F33272330BF
:1046C000310521F168F42130310509F449C0223067
:1046D000310509F44AC090E080E030E020E029C0D4
:1046E0002132310581F122323105A9F7633071059C
:1046F00090F7FB01EE0FFF1FE157FE4F2081318144
:1047000064577E4FFB01808190E013C09927813070
:10471000910599F0009741F08230910589F0039757
:10472000D1F6E9E5FBE002C0E7E7FBE0849190E029
:104730009F01FA01318320830895E9E6FBE0F6CF7B
:10474000EFE5FBE0F3CF6330710528F6660F771FC6
:10475000FB01EB56FE4F2081318189E090E0E9CFEB
:1047600082E190E026ED3BE0E4CF8BE590E02BE7A3
:104770003BE0DFCF80E189BD82E189BD09B400FE65
:10478000FDCF8091D8008F7D8093D8008091E0008C
:1047900082608093E0008091E00081FDFCCF08956D
:1047A000AF92BF92CF92DF92FF920F931F93CF935E
:1047B000DF936C01EB018A010E947E25F82E8111A6
:1047C00023C00115110539F0F80180819181C81BC2
:1047D000D90BC80ED91EB12CA12C2097A9F080911D
:1047E000E80085FD22C08091E8008E778093E80084
:1047F00001151105A1F0F80180819181A80EB91E63
:10480000B182A08285E0F82E8F2DDF91CF911F918C
:104810000F91FF90DF90CF90BF90AF9008950E94CE
:104820007E258823D1F2F82EEFCFF60181916F011A
:104830008093F1002197FFEFAF1ABF0ACECFAF925E
:10484000BF92CF92DF92FF920F931F93CF93DF938C
:104850006C01EB018A010E947E25F82E811123C094
:104860000115110539F0F80180819181C81BD90B20
:10487000C80ED91EB12CA12C2097A9F08091E80078
:1048800085FD22C08091E8008B778093E8000115B8
:104890001105A1F0F80180819181A80EB91EB182A5
:1048A000A08285E0F82E8F2DDF91CF911F910F917F
:1048B000FF90DF90CF90BF90AF9008950E947E252B
:1048C0008823D1F2F82EEFCF8091F100F601819389
:1048D0006F012197FFEFAF1ABF0ACECFFC01809185
:1048E000A2029091A30286179707A0F061157105A7
:1048F00029F49091E8009E779093E80090E061158C
:10490000710551F4911108C08091E80082FF34C014
:1049100080E00895BC01F2CF80919B028823C1F111
:104920008530C1F18091E80083FD30C08091E800BE
:1049300082FDEACF8091E80080FFE1CF8091F30013
:104940002091F200382F6115710519F028303105DA
:1049500058F091E02830310509F090E02091E8000E
:104960002E772093E800CBCF81918093F1006150A6
:1049700071092F5F3F4FE7CF80919B02882341F061
:10498000853041F08091E80083FFBECF81E008953B
:1049900082E0089583E00895FC018091A202909145
:1049A000A30286179707A0F06115710529F480917D
:1049B000E8008E778093E80090E06115710551F46E
:1049C000911108C08091E80082FF35C080E0089511
:1049D000BC01F2CF80919B028823C9F18530C9F1D7
:1049E0008091E80083FD31C08091E80082FDEACF2C
:1049F0008091E80080FFE1CF8091F3002091F200E8
:104A0000382F6115710519F02830310558F091E003
:104A10002830310509F090E08091E8008E7780938E
:104A2000E800CBCF84918093F100319661507109F9
:104A30002F5F3F4FE6CF80919B02882341F0853066
:104A400041F08091E80083FFBDCF81E0089582E0CE
:104A5000089583E00895982F973028F08F70809301
:104A6000E90081E008959093E900242F762F50E02B
:104A7000981731F07091EC002091ED005091F0000A
:104A800021FD02C09F5FE8CF3091EB003E7F309365
:104A9000EB003091ED003D7F3093ED003091EB0065
:104AA00031603093EB007093EC002093ED00509355
:104AB000F0002091EE0027FDE5CF80E00895809181
:104AC0009C0287FF13C08091E80082FF06C080919E
:104AD000E8008B778093E80004C080919B028111ED
:104AE000F2CF089580919B028823D9F38091E8004A
:104AF00080FFF8CF8091E8008E77ECCF2091E40022
:104B00003091E50095E6A9012091EC00822F81709B
:104B100020FF06C08091E80080FF06C080E0089575
:104B20002091E80022FD1AC080919B02882389F021
:104B3000853089F08091EB0085FD0FC02091E40065
:104B40003091E50042175307F9F29150E1F684E005
:104B5000089582E0089583E0089581E008950E9419
:104B60001D260E942526E0EEF0E080818160808392
:104B7000E8EDF0E080818F77808319BCA7EDB0E08D
:104B80008C918E7F8C9380818F7E808310929A028D
:104B900008950F931F93CF93DF930E941D260E94C9
:104BA0002526C8EDD0E088818F778883888180684A
:104BB000888388818F7D888319BC10929B02109214
:104BC0009702109299021092980200EE10E0F801FC
:104BD00080818B7F808388818160888342E060E070
:104BE00080E00E942B25E1EEF0E080818E7F8083C3
:104BF000E2EEF0E080818160808380818860808344
:104C0000F80180818E7F8083888180618883DF9135
:104C1000CF911F910F910895E8EDF0E080818F7E94
:104C20008083E7EDF0E080818160808384E082BF53
:104C300081E080939A020C94C925E8EDF0E0808130
:104C40008E7F80831092E20008951092DA00109215
:104C5000E10008951F920F920FB60F9211242F9327
:104C60003F934F935F936F937F938F939F93AF93F4
:104C7000BF93EF93FF938091E10082FF0BC080917F
:104C8000E20082FF07C08091E1008B7F8093E1000A
:104C90000E9494288091DA0080FF19C08091D8008A
:104CA00080FF15C08091DA008E7F8093DA008091BA
:104CB000D90080FF96C080E189BD82E189BD09B439
:104CC00000FEFDCF81E080939B020E940D22809127
:104CD000E10080FF19C08091E20080FF15C0809143
:104CE000E2008E7F8093E2008091E20080618093F9
:104CF000E2008091D80080628093D80019BC85E0E2
:104D000080939B020E941F228091E10084FF2BC0B0
:104D10008091E20084FF27C080E189BD82E189BDE6
:104D200089B5982F917080FFFBCF8091D8008F7D3F
:104D30008093D8008091E1008F7E8093E100809184
:104D4000E2008F7E8093E2008091E2008160809398
:104D5000E20080919702882309F449C084E080939F
:104D60009B020E9420228091E10083FF29C0809154
:104D7000E20083FF25C08091E100877F8093E100FE
:104D800082E080939B02109297028091E1008E7FD7
:104D90008093E1008091E2008E7F8093E200809119
:104DA000E20080618093E20042E060E080E00E94E7
:104DB0002B258091F00088608093F0000E941E22D5
:104DC000FF91EF91BF91AF919F918F917F916F91E3
:104DD0005F914F913F912F910F900FBE0F901F90B9
:104DE000189519BC10929B020E941B2270CF8091D3
:104DF000E30087FD93E090939B02B3CF1F920F9245
:104E00000FB60F9211242F933F934F935F936F939D
:104E10007F938F939F93AF93BF93CF93DF93EF9342
:104E2000FF93D091E900DF708091EC00C82FC17032
:104E300080FDC0E81092E9008091F000877F8093A8
:104E4000F00078940E9442271092E9008091F000CF
:104E500088608093F000CD2BCF70C093E900FF9164
:104E6000EF91DF91CF91BF91AF919F918F917F9102
:104E70006F915F914F913F912F910F900FBE0F90C7
:104E80001F9018951F93CF93DF93CDB7DEB7AA97E6
:104E90000FB6F894DEBF0FBECDBF8CE992E0209133
:104EA000F100FC012193CF01F2E0843A9F07B9F7AA
:104EB0000E9436228091E80083FF1EC180919C02EF
:104EC00090919D029A3008F017C1E92FF0E0E65A60
:104ED000F64D0C94C428803899F0823809F00CC142
:104EE0008091A0028F70873008F006C18093E9009E
:104EF0008091EB0085FB882780F91092E90006C0BD
:104F00008091980290919902911182609091E800AD
:104F1000977F9093E8008093F1001092F1008091C8
:104F2000E8008E77E5C0882309F4D3C0823009F009
:104F3000E3C080919E028111D6C08091A0028F7043
:104F40002FEF280F263008F0D7C08093E90020917A
:104F5000EB0020FFC8C0933031F48091EB008062F9
:104F60008093EB00C0C09091EB0090619093EB00B8
:104F700021E030E001C0220F8A95EAF72093EA0091
:104F80001092EA008091EB008860EACF8111B4C0F2
:104F900010919E021F778091E3008078812B80938F
:104FA000E3008091E800877F8093E8000E945F25FE
:104FB0008091E80080FFFCCF8091E30080688093BF
:104FC000E30082E0111183E080939B0295C080583A
:104FD000823008F091C080919E0290919F028C3D9A
:104FE00023E09207A1F583E08A838AE289834FB7A1
:104FF000F894DE01139620E03EE051E2E32FF0E06A
:1050000050935700E49120FF03C0E295EF703F5F9B
:10501000EF708E2F90E0EA30C0F0C7968D939D938D
:105020002F5F243159F74FBF8091E800877F80932D
:10503000E8006AE270E0CE0101960E946E24809141
:10504000E8008B778093E80057C0C096E7CF609167
:10505000A0027091A102AE014F5F5F4F0E945B23DF
:10506000BC01892B09F448C09091E800977F909388
:10507000E80089819A810E94CC24E1CF8038E1F553
:105080008091E800877F8093E80080919702809369
:10509000F10045CF811130C090919E02923060F5B1
:1050A0008091E800877F8093E800909397020E94A8
:1050B0005F2580919702882311F084E005C08091DC
:1050C000E30087FDFACF81E080939B020E942222B9
:1050D00013C080919E02813079F481E0933009F011
:1050E00080E0809399021092E9008091E800877F28
:1050F0008093E8000E945F258091E80083FF0AC04A
:105100008091E800877F8093E8008091EB008062C7
:105110008093EB00AA960FB6F894DEBF0FBECDBF0A
:10512000DF91CF911F9108950895CF9380919B02B5
:105130008823A1F0C091E900CF709091EC00892FF5
:10514000817090FD80E8C82B1092E9008091E80002
:1051500083FD0E944227CF70C093E900CF9108954C
:1051600097FB072E16F4009407D077FD09D00E9414
:10517000D12807FC05D03EF4909581959F4F089566
:10518000709561957F4F0895EE0FFF1F0590F49184
:10519000E02D09946927962769277827872778279C
:1051A0000895AA1BBB1B51E107C0AA1FBB1FA6176E
:1051B000B70710F0A61BB70B881F991F5A95A9F7C0
:1051C00080959095BC01CD010895F999FECF92BDCF
:1051D00081BDF89A992780B50895A8E1B0E042E032
:1051E00050E00C941929262FF999FECF92BD81BD6C
:1051F000F89A019700B4021639F01FBA20BD0FB615
:10520000F894FA9AF99A0FBE08950396272F0E94F0
:10521000F4280E94F328252F0E94F428242F0C94B0
:10522000F4280196272F0E94F4280C94F328DC011F
:10523000CB01FC01F999FECF06C0F2BDE1BDF89AA1
:10524000319600B40D9241505040B8F70895F8944B
:10525000FFCF920C9F0CC60CD20CDD0CE80CEB0CB3
:10526000EB0CEB0C340D370DEE0CF20CFA0C070DB9
:10527000140D170D1A0D270DA613A613FE13FE13FA
:1052800050146C14D313D31377140315121512157D
:105290006E15D313D3137715EC15EC15F515F5151D
:1052A000F715F515F515F515EC15EC15FC15F515B7
:1052B000F515FC156B2793277C2893277C28C62798
:0852C000E7277C283E284A285C
:1052C80029022808641E140A321E4521A3218221BE
:1052D8007E217A2101E200E900EA00B500B600B7B4
:1052E80000CD008301CC008A0192019401210223A0
:1052F8000224022502260227022A02B300B4006F04
:105308000070008182836766979695949392919036
:10531800C6F7F6F5F4F03034353637E200E900EA3E
:1053280000B500B600B700CD008301CC008A019219
:105338000194012102230224022502260227022ABF
:1053480002B300B4006F0070008182834022BCC6A3
:0C5358000CE80B0A0C8D0BA60BC60B001A
:00000001FF
